{
  "fileName": "TokenExchange.sol",
  "contractName": "TokenExchange",
  "source": "pragma solidity ^0.5.0;\n\n// Import base Initializable contract\nimport \"@openzeppelin/upgrades/contracts/Initializable.sol\";\n\n// Import interface and library from OpenZeppelin contracts\nimport \"@openzeppelin/contracts-ethereum-package/contracts/token/ERC20/IERC20.sol\";\nimport \"@openzeppelin/contracts-ethereum-package/contracts/math/SafeMath.sol\";\n\ncontract TokenExchange is Initializable {\n  using SafeMath for uint256;\n\n  // Contract state: exchange rate and token\n  uint256 public rate;\n  IERC20 public token;\n\n  // Initializer function (replaces constructor)\n  function initialize(uint256 _rate, IERC20 _token) public initializer {\n    rate = _rate;\n    token = _token;\n  }\n\n  // Send tokens back to the sender using predefined exchange rate\n  function() external payable {\n    uint256 tokens = msg.value.mul(rate);\n    token.transfer(msg.sender, tokens);\n  }\n}",
  "sourcePath": "contracts/TokenExchange.sol",
  "abi": [
    {
      "payable": true,
      "stateMutability": "payable",
      "type": "fallback"
    },
    {
      "constant": false,
      "inputs": [
        {
          "internalType": "uint256",
          "name": "_rate",
          "type": "uint256"
        },
        {
          "internalType": "contract IERC20",
          "name": "_token",
          "type": "address"
        }
      ],
      "name": "initialize",
      "outputs": [],
      "payable": false,
      "stateMutability": "nonpayable",
      "type": "function"
    },
    {
      "constant": true,
      "inputs": [],
      "name": "rate",
      "outputs": [
        {
          "internalType": "uint256",
          "name": "",
          "type": "uint256"
        }
      ],
      "payable": false,
      "stateMutability": "view",
      "type": "function"
    },
    {
      "constant": true,
      "inputs": [],
      "name": "token",
      "outputs": [
        {
          "internalType": "contract IERC20",
          "name": "",
          "type": "address"
        }
      ],
      "payable": false,
      "stateMutability": "view",
      "type": "function"
    }
  ],
  "bytecode": "0x60806040523480156100115760006000fd5b50610017565b6104d9806100266000396000f3fe6080604052600436106100385760003560e01c80632c4e722e14610141578063da35a26f1461016d578063fc0c546a146101ca57610038565b5b60006100536033600050543461022290919063ffffffff16565b9050603460009054906101000a900473ffffffffffffffffffffffffffffffffffffffff1673ffffffffffffffffffffffffffffffffffffffff1663a9059cbb33836040518363ffffffff1660e01b8152600401808373ffffffffffffffffffffffffffffffffffffffff1673ffffffffffffffffffffffffffffffffffffffff16815260200182815260200192505050602060405180830381600087803b1580156100ff5760006000fd5b505af1158015610114573d600060003e3d6000fd5b505050506040513d602081101561012b5760006000fd5b810190808051906020019092919050505050505b005b34801561014e5760006000fd5b506101576102b2565b6040518082815260200191505060405180910390f35b34801561017a5760006000fd5b506101c8600480360360408110156101925760006000fd5b8101908080359060200190929190803573ffffffffffffffffffffffffffffffffffffffff1690602001909291905050506102bb565b005b3480156101d75760006000fd5b506101e0610417565b604051808273ffffffffffffffffffffffffffffffffffffffff1673ffffffffffffffffffffffffffffffffffffffff16815260200191505060405180910390f35b6000600083141561023657600090506102ac565b6000828402905082848281151561024957fe5b041415156102a2576040517f08c379a00000000000000000000000000000000000000000000000000000000081526004018080602001828103825260218152602001806104566021913960400191505060405180910390fd5b809150506102ac56505b92915050565b60336000505481565b600060019054906101000a900460ff16806102e057506102df61043d63ffffffff16565b5b806102f85750600060009054906101000a900460ff16155b151561034f576040517f08c379a000000000000000000000000000000000000000000000000000000000815260040180806020018281038252602e815260200180610477602e913960400191505060405180910390fd5b6000600060019054906101000a900460ff1615905080156103a1576001600060016101000a81548160ff0219169083151502179055506001600060006101000a81548160ff0219169083151502179055505b82603360005081909090555081603460006101000a81548173ffffffffffffffffffffffffffffffffffffffff021916908373ffffffffffffffffffffffffffffffffffffffff1602179055505b8015610411576000600060016101000a81548160ff0219169083151502179055505b505b5050565b603460009054906101000a900473ffffffffffffffffffffffffffffffffffffffff1681565b60006000303b90506000811491505061045256505b9056fe536166654d6174683a206d756c7469706c69636174696f6e206f766572666c6f77436f6e747261637420696e7374616e63652068617320616c7265616479206265656e20696e697469616c697a6564a265627a7a723158206de03588259f2a0b851c0edae9bb6247047409a3dd799e9104f50bff457f3d6164736f6c634300050c0032",
  "compiler": {
    "name": "solc",
    "version": "0.5.12+commit.7709ece9.Emscripten.clang",
    "optimizer": {},
    "evmVersion": "constantinople"
  }
}