{
  "fileName": "Counter.sol",
  "contractName": "Counter",
  "source": "pragma solidity ^0.5.0;\n\ncontract Counter {\n  uint256 public value;\n\n  function increase(uint256 amount) public {\n    value += amount;\n  }\n}\n",
  "sourcePath": "contracts/Counter.sol",
  "abi": [
    {
      "constant": false,
      "inputs": [
        {
          "internalType": "uint256",
          "name": "amount",
          "type": "uint256"
        }
      ],
      "name": "increase",
      "outputs": [],
      "payable": false,
      "stateMutability": "nonpayable",
      "type": "function"
    },
    {
      "constant": true,
      "inputs": [],
      "name": "value",
      "outputs": [
        {
          "internalType": "uint256",
          "name": "",
          "type": "uint256"
        }
      ],
      "payable": false,
      "stateMutability": "view",
      "type": "function"
    }
  ],
  "bytecode": "0x60806040523480156100115760006000fd5b50610017565b60da806100256000396000f3fe608060405234801560105760006000fd5b506004361060365760003560e01c806330f3f0db14603c5780633fa4f245146068576036565b60006000fd5b60666004803603602081101560515760006000fd5b81019080803590602001909291905050506084565b005b606e609c565b6040518082815260200191505060405180910390f35b80600060008282825054019250508190909055505b50565b6000600050548156fea265627a7a723158207ddf0ae390779dd016a254e65eded82ede851a6a5fae764d09cee853a156506564736f6c634300050c0032",
  "compiler": {
    "name": "solc",
    "version": "0.5.12+commit.7709ece9.Emscripten.clang",
    "optimizer": {},
    "evmVersion": "constantinople"
  }
}